:10000000000000308A00B728FF00030E8301A10022
:100010000A08A0008A010408A2007708A300780853
:10002000A4007908A5007A08A6007B08A70083131E
:1000300083128B1E1D280B193028220884002308E8
:10004000F7002408F8002508F9002608FA00270818
:10005000FB0020088A00210E8300FF0E7F0E09009E
:100060008A110A123328683081000130AE000B116A
:100070008A110A121D2832308400000803194D2805
:100080000630F800F701F70B4328F80B42287B30C5
:10009000F700F70B4928800B402800340530F700A3
:1000A000F71D5A2807308101813084000008C039CB
:1000B0000F3880006400813084000008C039770464
:1000C00080000030831687008312B000B0008316D2
:1000D000870083128701A801831686128312861671
:1000E0000230B100FA30B2003B20B10B7228831607
:1000F0008612831286120230B100FA30B2003B2021
:10010000B10B7D28A80A2808053C03186C28C030CC
:100110008B048A110A12C328AE08031D90288C286C
:10012000AE012B08F7002908F80003199B280310DB
:10013000F70CF80B9728003077180130013C031DAD
:10014000A828301230088316870083120716AE28BD
:10015000301230088316870083120712A903A80AF9
:100160002808073C03188C288A110A12E328840106
:100170001F308305063083169F00073083129F00CF
:10018000FF30B0004E280130AA002A08043C031CAE
:10019000EC280C3081008B16A8010730A900013033
:1001A0002A02FC3E0318E228043EEE283E30AB0053
:1001B000E2284F30AB00E228AA30AB00E228023040
:1001C000AB00E2288C288B1230123008831687008F
:1001D00083120712AA0AC528C328ED280A108A101C
:0C01E0000A118207D628D928DC28DF2865
:02400E00323747
:00000001FF
;PIC16F877A
