:10000000000000308A00B728FF00030E8301A10022
:100010000A08A0008A010408A2007708A300780853
:10002000A4007908A5007A08A6007B08A70083131E
:1000300083128B1E1D280B193028220884002308E8
:10004000F7002408F8002508F9002608FA00270818
:10005000FB0020088A00210E8300FF0E7F0E09009E
:100060008A110A123328683081000130AD000B116B
:100070008A110A121D2831308400000803194D2806
:100080000630F800F701F70B4328F80B42287B30C5
:10009000F700F70B4928800B402800340530F700A3
:1000A000F71D5A2807308101813084000008C039CB
:1000B0000F3880006400813084000008C039770464
:1000C00080000030831687008312AF00AF008316D4
:1000D000870083128701A801831686128312861671
:1000E0000230B000FA30B1003B20B00B722883160A
:1000F0008612831286120230B000FA30B1003B2023
:10010000B00B7D28A80A2808053C03186C28C030CD
:100110008B048A110A12C328AD08031D90288C286D
:10012000AD012A08F7002908F80003199B280310DD
:10013000F70CF80B9728003077180130013C031DAD
:10014000A8282F122F088316870083120716AE28BF
:100150002F122F088316870083120712A903A80AFB
:100160002808073C03188C288A110A12CC2884011D
:100170001F308305063083169F00073083129F00CF
:10018000FF30AF004E280C3081008B16A8010730DD
:10019000A9003E30AA008C288B122F122F0883163C
:0A01A000870083120712C328D42839
:02400E00323747
:00000001FF
;PIC16F877A
